{"contracts/CertificateVerifier.sol":{"CertificateVerifier":{"abi":[{"inputs":[],"name":"getAllCertificates","outputs":[{"internalType":"string[]","name":"","type":"string[]"}],"stateMutability":"view","type":"function"},{"inputs":[{"internalType":"string","name":"certificateId","type":"string"},{"internalType":"string","name":"studentName","type":"string"},{"internalType":"string","name":"course","type":"string"}],"name":"issueCertificate","outputs":[],"stateMutability":"nonpayable","type":"function"},{"inputs":[{"internalType":"string","name":"certificateId","type":"string"}],"name":"verifyCertificate","outputs":[{"internalType":"string","name":"studentName","type":"string"},{"internalType":"string","name":"course","type":"string"}],"stateMutability":"view","type":"function"}],"evm":{"bytecode":{"linkReferences":{},"object":"6080604052348015600f57600080fd5b50610cfb8061001f6000396000f3fe608060405234801561001057600080fd5b50600436106100415760003560e01c806313fcfe80146100465780638b23d87514610064578063beec1caa14610095575b600080fd5b61004e6100b1565b60405161005b91906105d6565b60405180910390f35b61007e60048036038101906100799190610741565b61018a565b60405161008c9291906107d4565b60405180910390f35b6100af60048036038101906100aa919061080b565b610350565b005b60606001805480602002602001604051908101604052809291908181526020016000905b828210156101815783829060005260206000200180546100f4906108e1565b80601f0160208091040260200160405190810160405280929190818152602001828054610120906108e1565b801561016d5780601f106101425761010080835404028352916020019161016d565b820191906000526020600020905b81548152906001019060200180831161015057829003601f168201915b5050505050815260200190600101906100d5565b50505050905090565b6060806000808460405161019e919061094e565b90815260200160405180910390206040518060600160405290816000820180546101c7906108e1565b80601f01602080910402602001604051908101604052809291908181526020018280546101f3906108e1565b80156102405780601f1061021557610100808354040283529160200191610240565b820191906000526020600020905b81548152906001019060200180831161022357829003601f168201915b50505050508152602001600182018054610259906108e1565b80601f0160208091040260200160405190810160405280929190818152602001828054610285906108e1565b80156102d25780601f106102a7576101008083540402835291602001916102d2565b820191906000526020600020905b8154815290600101906020018083116102b557829003601f168201915b505050505081526020016002820160009054906101000a900460ff1615151515815250509050806040015161033c576040517f08c379a0000000000000000000000000000000000000000000000000000000008152600401610333906109b1565b60405180910390fd5b806000015181602001519250925050915091565b60008084604051610361919061094e565b9081526020016040518091039020600001805461037d906108e1565b9050146103bf576040517f08c379a00000000000000000000000000000000000000000000000000000000081526004016103b690610a1d565b60405180910390fd5b6040518060600160405280838152602001828152602001600115158152506000846040516103ed919061094e565b908152602001604051809103902060008201518160000190816104109190610bf3565b5060208201518160010190816104269190610bf3565b5060408201518160020160006101000a81548160ff02191690831515021790555090505060018390806001815401808255809150506001900390600052602060002001600090919091909150908161047e9190610bf3565b50505050565b600081519050919050565b600082825260208201905092915050565b6000819050602082019050919050565b600081519050919050565b600082825260208201905092915050565b60005b838110156104ea5780820151818401526020810190506104cf565b60008484015250505050565b6000601f19601f8301169050919050565b6000610512826104b0565b61051c81856104bb565b935061052c8185602086016104cc565b610535816104f6565b840191505092915050565b600061054c8383610507565b905092915050565b6000602082019050919050565b600061056c82610484565b610576818561048f565b935083602082028501610588856104a0565b8060005b858110156105c457848403895281516105a58582610540565b94506105b083610554565b925060208a0199505060018101905061058c565b50829750879550505050505092915050565b600060208201905081810360008301526105f08184610561565b905092915050565b6000604051905090565b600080fd5b600080fd5b600080fd5b600080fd5b7f4e487b7100000000000000000000000000000000000000000000000000000000600052604160045260246000fd5b61064e826104f6565b810181811067ffffffffffffffff8211171561066d5761066c610616565b5b80604052505050565b60006106806105f8565b905061068c8282610645565b919050565b600067ffffffffffffffff8211156106ac576106ab610616565b5b6106b5826104f6565b9050602081019050919050565b82818337600083830152505050565b60006106e46106df84610691565b610676565b905082815260208101848484011115610700576106ff610611565b5b61070b8482856106c2565b509392505050565b600082601f8301126107285761072761060c565b5b81356107388482602086016106d1565b91505092915050565b60006020828403121561075757610756610602565b5b600082013567ffffffffffffffff81111561077557610774610607565b5b61078184828501610713565b91505092915050565b600082825260208201905092915050565b60006107a6826104b0565b6107b0818561078a565b93506107c08185602086016104cc565b6107c9816104f6565b840191505092915050565b600060408201905081810360008301526107ee818561079b565b90508181036020830152610802818461079b565b90509392505050565b60008060006060848603121561082457610823610602565b5b600084013567ffffffffffffffff81111561084257610841610607565b5b61084e86828701610713565b935050602084013567ffffffffffffffff81111561086f5761086e610607565b5b61087b86828701610713565b925050604084013567ffffffffffffffff81111561089c5761089b610607565b5b6108a886828701610713565b9150509250925092565b7f4e487b7100000000000000000000000000000000000000000000000000000000600052602260045260246000fd5b600060028204905060018216806108f957607f821691505b60208210810361090c5761090b6108b2565b5b50919050565b600081905092915050565b6000610928826104b0565b6109328185610912565b93506109428185602086016104cc565b80840191505092915050565b600061095a828461091d565b915081905092915050565b7f436572746966696361746520646f6573206e6f74206578697374000000000000600082015250565b600061099b601a8361078a565b91506109a682610965565b602082019050919050565b600060208201905081810360008301526109ca8161098e565b9050919050565b7f436572746966696361746520616c726561647920657869737473000000000000600082015250565b6000610a07601a8361078a565b9150610a12826109d1565b602082019050919050565b60006020820190508181036000830152610a36816109fa565b9050919050565b60008190508160005260206000209050919050565b60006020601f8301049050919050565b600082821b905092915050565b600060088302610a9f7fffffffffffffffffffffffffffffffffffffffffffffffffffffffffffffffff82610a62565b610aa98683610a62565b95508019841693508086168417925050509392505050565b6000819050919050565b6000819050919050565b6000610af0610aeb610ae684610ac1565b610acb565b610ac1565b9050919050565b6000819050919050565b610b0a83610ad5565b610b1e610b1682610af7565b848454610a6f565b825550505050565b600090565b610b33610b26565b610b3e818484610b01565b505050565b5b81811015610b6257610b57600082610b2b565b600181019050610b44565b5050565b601f821115610ba757610b7881610a3d565b610b8184610a52565b81016020851015610b90578190505b610ba4610b9c85610a52565b830182610b43565b50505b505050565b600082821c905092915050565b6000610bca60001984600802610bac565b1980831691505092915050565b6000610be38383610bb9565b9150826002028217905092915050565b610bfc826104b0565b67ffffffffffffffff811115610c1557610c14610616565b5b610c1f82546108e1565b610c2a828285610b66565b600060209050601f831160018114610c5d5760008415610c4b578287015190505b610c558582610bd7565b865550610cbd565b601f198416610c6b86610a3d565b60005b82811015610c9357848901518255600182019150602085019450602081019050610c6e565b86831015610cb05784890151610cac601f891682610bb9565b8355505b6001600288020188555050505b50505050505056fea2646970667358221220657eb7593b914454d530756853070a38226b90e2d36aa074bccdf677cc918ae264736f6c634300081c0033","opcodes":"PUSH1 0x80 PUSH1 0x40 MSTORE CALLVALUE DUP1 ISZERO PUSH1 0xF JUMPI PUSH1 0x0 DUP1 REVERT JUMPDEST POP PUSH2 0xCFB DUP1 PUSH2 0x1F PUSH1 0x0 CODECOPY PUSH1 0x0 RETURN INVALID PUSH1 0x80 PUSH1 0x40 MSTORE CALLVALUE DUP1 ISZERO PUSH2 0x10 JUMPI PUSH1 0x0 DUP1 REVERT JUMPDEST POP PUSH1 0x4 CALLDATASIZE LT PUSH2 0x41 JUMPI PUSH1 0x0 CALLDATALOAD PUSH1 0xE0 SHR DUP1 PUSH4 0x13FCFE80 EQ PUSH2 0x46 JUMPI DUP1 PUSH4 0x8B23D875 EQ PUSH2 0x64 JUMPI DUP1 PUSH4 0xBEEC1CAA EQ PUSH2 0x95 JUMPI JUMPDEST PUSH1 0x0 DUP1 REVERT JUMPDEST PUSH2 0x4E PUSH2 0xB1 JUMP JUMPDEST PUSH1 0x40 MLOAD PUSH2 0x5B SWAP2 SWAP1 PUSH2 0x5D6 JUMP JUMPDEST PUSH1 0x40 MLOAD DUP1 SWAP2 SUB SWAP1 RETURN JUMPDEST PUSH2 0x7E PUSH1 0x4 DUP1 CALLDATASIZE SUB DUP2 ADD SWAP1 PUSH2 0x79 SWAP2 SWAP1 PUSH2 0x741 JUMP JUMPDEST PUSH2 0x18A JUMP JUMPDEST PUSH1 0x40 MLOAD PUSH2 0x8C SWAP3 SWAP2 SWAP1 PUSH2 0x7D4 JUMP JUMPDEST PUSH1 0x40 MLOAD DUP1 SWAP2 SUB SWAP1 RETURN JUMPDEST PUSH2 0xAF PUSH1 0x4 DUP1 CALLDATASIZE SUB DUP2 ADD SWAP1 PUSH2 0xAA SWAP2 SWAP1 PUSH2 0x80B JUMP JUMPDEST PUSH2 0x350 JUMP JUMPDEST STOP JUMPDEST PUSH1 0x60 PUSH1 0x1 DUP1 SLOAD DUP1 PUSH1 0x20 MUL PUSH1 0x20 ADD PUSH1 0x40 MLOAD SWAP1 DUP2 ADD PUSH1 0x40 MSTORE DUP1 SWAP3 SWAP2 SWAP1 DUP2 DUP2 MSTORE PUSH1 0x20 ADD PUSH1 0x0 SWAP1 JUMPDEST DUP3 DUP3 LT ISZERO PUSH2 0x181 JUMPI DUP4 DUP3 SWAP1 PUSH1 0x0 MSTORE PUSH1 0x20 PUSH1 0x0 KECCAK256 ADD DUP1 SLOAD PUSH2 0xF4 SWAP1 PUSH2 0x8E1 JUMP JUMPDEST DUP1 PUSH1 0x1F ADD PUSH1 0x20 DUP1 SWAP2 DIV MUL PUSH1 0x20 ADD PUSH1 0x40 MLOAD SWAP1 DUP2 ADD PUSH1 0x40 MSTORE DUP1 SWAP3 SWAP2 SWAP1 DUP2 DUP2 MSTORE PUSH1 0x20 ADD DUP3 DUP1 SLOAD PUSH2 0x120 SWAP1 PUSH2 0x8E1 JUMP JUMPDEST DUP1 ISZERO PUSH2 0x16D JUMPI DUP1 PUSH1 0x1F LT PUSH2 0x142 JUMPI PUSH2 0x100 DUP1 DUP4 SLOAD DIV MUL DUP4 MSTORE SWAP2 PUSH1 0x20 ADD SWAP2 PUSH2 0x16D JUMP JUMPDEST DUP3 ADD SWAP2 SWAP1 PUSH1 0x0 MSTORE PUSH1 0x20 PUSH1 0x0 KECCAK256 SWAP1 JUMPDEST DUP2 SLOAD DUP2 MSTORE SWAP1 PUSH1 0x1 ADD SWAP1 PUSH1 0x20 ADD DUP1 DUP4 GT PUSH2 0x150 JUMPI DUP3 SWAP1 SUB PUSH1 0x1F AND DUP3 ADD SWAP2 JUMPDEST POP POP POP POP POP DUP2 MSTORE PUSH1 0x20 ADD SWAP1 PUSH1 0x1 ADD SWAP1 PUSH2 0xD5 JUMP JUMPDEST POP POP POP POP SWAP1 POP SWAP1 JUMP JUMPDEST PUSH1 0x60 DUP1 PUSH1 0x0 DUP1 DUP5 PUSH1 0x40 MLOAD PUSH2 0x19E SWAP2 SWAP1 PUSH2 0x94E JUMP JUMPDEST SWAP1 DUP2 MSTORE PUSH1 0x20 ADD PUSH1 0x40 MLOAD DUP1 SWAP2 SUB SWAP1 KECCAK256 PUSH1 0x40 MLOAD DUP1 PUSH1 0x60 ADD PUSH1 0x40 MSTORE SWAP1 DUP2 PUSH1 0x0 DUP3 ADD DUP1 SLOAD PUSH2 0x1C7 SWAP1 PUSH2 0x8E1 JUMP JUMPDEST DUP1 PUSH1 0x1F ADD PUSH1 0x20 DUP1 SWAP2 DIV MUL PUSH1 0x20 ADD PUSH1 0x40 MLOAD SWAP1 DUP2 ADD PUSH1 0x40 MSTORE DUP1 SWAP3 SWAP2 SWAP1 DUP2 DUP2 MSTORE PUSH1 0x20 ADD DUP3 DUP1 SLOAD PUSH2 0x1F3 SWAP1 PUSH2 0x8E1 JUMP JUMPDEST DUP1 ISZERO PUSH2 0x240 JUMPI DUP1 PUSH1 0x1F LT PUSH2 0x215 JUMPI PUSH2 0x100 DUP1 DUP4 SLOAD DIV MUL DUP4 MSTORE SWAP2 PUSH1 0x20 ADD SWAP2 PUSH2 0x240 JUMP JUMPDEST DUP3 ADD SWAP2 SWAP1 PUSH1 0x0 MSTORE PUSH1 0x20 PUSH1 0x0 KECCAK256 SWAP1 JUMPDEST DUP2 SLOAD DUP2 MSTORE SWAP1 PUSH1 0x1 ADD SWAP1 PUSH1 0x20 ADD DUP1 DUP4 GT PUSH2 0x223 JUMPI DUP3 SWAP1 SUB PUSH1 0x1F AND DUP3 ADD SWAP2 JUMPDEST POP POP POP POP POP DUP2 MSTORE PUSH1 0x20 ADD PUSH1 0x1 DUP3 ADD DUP1 SLOAD PUSH2 0x259 SWAP1 PUSH2 0x8E1 JUMP JUMPDEST DUP1 PUSH1 0x1F ADD PUSH1 0x20 DUP1 SWAP2 DIV MUL PUSH1 0x20 ADD PUSH1 0x40 MLOAD SWAP1 DUP2 ADD PUSH1 0x40 MSTORE DUP1 SWAP3 SWAP2 SWAP1 DUP2 DUP2 MSTORE PUSH1 0x20 ADD DUP3 DUP1 SLOAD PUSH2 0x285 SWAP1 PUSH2 0x8E1 JUMP JUMPDEST DUP1 ISZERO PUSH2 0x2D2 JUMPI DUP1 PUSH1 0x1F LT PUSH2 0x2A7 JUMPI PUSH2 0x100 DUP1 DUP4 SLOAD DIV MUL DUP4 MSTORE SWAP2 PUSH1 0x20 ADD SWAP2 PUSH2 0x2D2 JUMP JUMPDEST DUP3 ADD SWAP2 SWAP1 PUSH1 0x0 MSTORE PUSH1 0x20 PUSH1 0x0 KECCAK256 SWAP1 JUMPDEST DUP2 SLOAD DUP2 MSTORE SWAP1 PUSH1 0x1 ADD SWAP1 PUSH1 0x20 ADD DUP1 DUP4 GT PUSH2 0x2B5 JUMPI DUP3 SWAP1 SUB PUSH1 0x1F AND DUP3 ADD SWAP2 JUMPDEST POP POP POP POP POP DUP2 MSTORE PUSH1 0x20 ADD PUSH1 0x2 DUP3 ADD PUSH1 0x0 SWAP1 SLOAD SWAP1 PUSH2 0x100 EXP SWAP1 DIV PUSH1 0xFF AND ISZERO ISZERO ISZERO ISZERO DUP2 MSTORE POP POP SWAP1 POP DUP1 PUSH1 0x40 ADD MLOAD PUSH2 0x33C JUMPI PUSH1 0x40 MLOAD PUSH32 0x8C379A000000000000000000000000000000000000000000000000000000000 DUP2 MSTORE PUSH1 0x4 ADD PUSH2 0x333 SWAP1 PUSH2 0x9B1 JUMP JUMPDEST PUSH1 0x40 MLOAD DUP1 SWAP2 SUB SWAP1 REVERT JUMPDEST DUP1 PUSH1 0x0 ADD MLOAD DUP2 PUSH1 0x20 ADD MLOAD SWAP3 POP SWAP3 POP POP SWAP2 POP SWAP2 JUMP JUMPDEST PUSH1 0x0 DUP1 DUP5 PUSH1 0x40 MLOAD PUSH2 0x361 SWAP2 SWAP1 PUSH2 0x94E JUMP JUMPDEST SWAP1 DUP2 MSTORE PUSH1 0x20 ADD PUSH1 0x40 MLOAD DUP1 SWAP2 SUB SWAP1 KECCAK256 PUSH1 0x0 ADD DUP1 SLOAD PUSH2 0x37D SWAP1 PUSH2 0x8E1 JUMP JUMPDEST SWAP1 POP EQ PUSH2 0x3BF JUMPI PUSH1 0x40 MLOAD PUSH32 0x8C379A000000000000000000000000000000000000000000000000000000000 DUP2 MSTORE PUSH1 0x4 ADD PUSH2 0x3B6 SWAP1 PUSH2 0xA1D JUMP JUMPDEST PUSH1 0x40 MLOAD DUP1 SWAP2 SUB SWAP1 REVERT JUMPDEST PUSH1 0x40 MLOAD DUP1 PUSH1 0x60 ADD PUSH1 0x40 MSTORE DUP1 DUP4 DUP2 MSTORE PUSH1 0x20 ADD DUP3 DUP2 MSTORE PUSH1 0x20 ADD PUSH1 0x1 ISZERO ISZERO DUP2 MSTORE POP PUSH1 0x0 DUP5 PUSH1 0x40 MLOAD PUSH2 0x3ED SWAP2 SWAP1 PUSH2 0x94E JUMP JUMPDEST SWAP1 DUP2 MSTORE PUSH1 0x20 ADD PUSH1 0x40 MLOAD DUP1 SWAP2 SUB SWAP1 KECCAK256 PUSH1 0x0 DUP3 ADD MLOAD DUP2 PUSH1 0x0 ADD SWAP1 DUP2 PUSH2 0x410 SWAP2 SWAP1 PUSH2 0xBF3 JUMP JUMPDEST POP PUSH1 0x20 DUP3 ADD MLOAD DUP2 PUSH1 0x1 ADD SWAP1 DUP2 PUSH2 0x426 SWAP2 SWAP1 PUSH2 0xBF3 JUMP JUMPDEST POP PUSH1 0x40 DUP3 ADD MLOAD DUP2 PUSH1 0x2 ADD PUSH1 0x0 PUSH2 0x100 EXP DUP2 SLOAD DUP2 PUSH1 0xFF MUL NOT AND SWAP1 DUP4 ISZERO ISZERO MUL OR SWAP1 SSTORE POP SWAP1 POP POP PUSH1 0x1 DUP4 SWAP1 DUP1 PUSH1 0x1 DUP2 SLOAD ADD DUP1 DUP3 SSTORE DUP1 SWAP2 POP POP PUSH1 0x1 SWAP1 SUB SWAP1 PUSH1 0x0 MSTORE PUSH1 0x20 PUSH1 0x0 KECCAK256 ADD PUSH1 0x0 SWAP1 SWAP2 SWAP1 SWAP2 SWAP1 SWAP2 POP SWAP1 DUP2 PUSH2 0x47E SWAP2 SWAP1 PUSH2 0xBF3 JUMP JUMPDEST POP POP POP POP JUMP JUMPDEST PUSH1 0x0 DUP2 MLOAD SWAP1 POP SWAP2 SWAP1 POP JUMP JUMPDEST PUSH1 0x0 DUP3 DUP3 MSTORE PUSH1 0x20 DUP3 ADD SWAP1 POP SWAP3 SWAP2 POP POP JUMP JUMPDEST PUSH1 0x0 DUP2 SWAP1 POP PUSH1 0x20 DUP3 ADD SWAP1 POP SWAP2 SWAP1 POP JUMP JUMPDEST PUSH1 0x0 DUP2 MLOAD SWAP1 POP SWAP2 SWAP1 POP JUMP JUMPDEST PUSH1 0x0 DUP3 DUP3 MSTORE PUSH1 0x20 DUP3 ADD SWAP1 POP SWAP3 SWAP2 POP POP JUMP JUMPDEST PUSH1 0x0 JUMPDEST DUP4 DUP2 LT ISZERO PUSH2 0x4EA JUMPI DUP1 DUP3 ADD MLOAD DUP2 DUP5 ADD MSTORE PUSH1 0x20 DUP2 ADD SWAP1 POP PUSH2 0x4CF JUMP JUMPDEST PUSH1 0x0 DUP5 DUP5 ADD MSTORE POP POP POP POP JUMP JUMPDEST PUSH1 0x0 PUSH1 0x1F NOT PUSH1 0x1F DUP4 ADD AND SWAP1 POP SWAP2 SWAP1 POP JUMP JUMPDEST PUSH1 0x0 PUSH2 0x512 DUP3 PUSH2 0x4B0 JUMP JUMPDEST PUSH2 0x51C DUP2 DUP6 PUSH2 0x4BB JUMP JUMPDEST SWAP4 POP PUSH2 0x52C DUP2 DUP6 PUSH1 0x20 DUP7 ADD PUSH2 0x4CC JUMP JUMPDEST PUSH2 0x535 DUP2 PUSH2 0x4F6 JUMP JUMPDEST DUP5 ADD SWAP2 POP POP SWAP3 SWAP2 POP POP JUMP JUMPDEST PUSH1 0x0 PUSH2 0x54C DUP4 DUP4 PUSH2 0x507 JUMP JUMPDEST SWAP1 POP SWAP3 SWAP2 POP POP JUMP JUMPDEST PUSH1 0x0 PUSH1 0x20 DUP3 ADD SWAP1 POP SWAP2 SWAP1 POP JUMP JUMPDEST PUSH1 0x0 PUSH2 0x56C DUP3 PUSH2 0x484 JUMP JUMPDEST PUSH2 0x576 DUP2 DUP6 PUSH2 0x48F JUMP JUMPDEST SWAP4 POP DUP4 PUSH1 0x20 DUP3 MUL DUP6 ADD PUSH2 0x588 DUP6 PUSH2 0x4A0 JUMP JUMPDEST DUP1 PUSH1 0x0 JUMPDEST DUP6 DUP2 LT ISZERO PUSH2 0x5C4 JUMPI DUP5 DUP5 SUB DUP10 MSTORE DUP2 MLOAD PUSH2 0x5A5 DUP6 DUP3 PUSH2 0x540 JUMP JUMPDEST SWAP5 POP PUSH2 0x5B0 DUP4 PUSH2 0x554 JUMP JUMPDEST SWAP3 POP PUSH1 0x20 DUP11 ADD SWAP10 POP POP PUSH1 0x1 DUP2 ADD SWAP1 POP PUSH2 0x58C JUMP JUMPDEST POP DUP3 SWAP8 POP DUP8 SWAP6 POP POP POP POP POP POP SWAP3 SWAP2 POP POP JUMP JUMPDEST PUSH1 0x0 PUSH1 0x20 DUP3 ADD SWAP1 POP DUP2 DUP2 SUB PUSH1 0x0 DUP4 ADD MSTORE PUSH2 0x5F0 DUP2 DUP5 PUSH2 0x561 JUMP JUMPDEST SWAP1 POP SWAP3 SWAP2 POP POP JUMP JUMPDEST PUSH1 0x0 PUSH1 0x40 MLOAD SWAP1 POP SWAP1 JUMP JUMPDEST PUSH1 0x0 DUP1 REVERT JUMPDEST PUSH1 0x0 DUP1 REVERT JUMPDEST PUSH1 0x0 DUP1 REVERT JUMPDEST PUSH1 0x0 DUP1 REVERT JUMPDEST PUSH32 0x4E487B7100000000000000000000000000000000000000000000000000000000 PUSH1 0x0 MSTORE PUSH1 0x41 PUSH1 0x4 MSTORE PUSH1 0x24 PUSH1 0x0 REVERT JUMPDEST PUSH2 0x64E DUP3 PUSH2 0x4F6 JUMP JUMPDEST DUP2 ADD DUP2 DUP2 LT PUSH8 0xFFFFFFFFFFFFFFFF DUP3 GT OR ISZERO PUSH2 0x66D JUMPI PUSH2 0x66C PUSH2 0x616 JUMP JUMPDEST JUMPDEST DUP1 PUSH1 0x40 MSTORE POP POP POP JUMP JUMPDEST PUSH1 0x0 PUSH2 0x680 PUSH2 0x5F8 JUMP JUMPDEST SWAP1 POP PUSH2 0x68C DUP3 DUP3 PUSH2 0x645 JUMP JUMPDEST SWAP2 SWAP1 POP JUMP JUMPDEST PUSH1 0x0 PUSH8 0xFFFFFFFFFFFFFFFF DUP3 GT ISZERO PUSH2 0x6AC JUMPI PUSH2 0x6AB PUSH2 0x616 JUMP JUMPDEST JUMPDEST PUSH2 0x6B5 DUP3 PUSH2 0x4F6 JUMP JUMPDEST SWAP1 POP PUSH1 0x20 DUP2 ADD SWAP1 POP SWAP2 SWAP1 POP JUMP JUMPDEST DUP3 DUP2 DUP4 CALLDATACOPY PUSH1 0x0 DUP4 DUP4 ADD MSTORE POP POP POP JUMP JUMPDEST PUSH1 0x0 PUSH2 0x6E4 PUSH2 0x6DF DUP5 PUSH2 0x691 JUMP JUMPDEST PUSH2 0x676 JUMP JUMPDEST SWAP1 POP DUP3 DUP2 MSTORE PUSH1 0x20 DUP2 ADD DUP5 DUP5 DUP5 ADD GT ISZERO PUSH2 0x700 JUMPI PUSH2 0x6FF PUSH2 0x611 JUMP JUMPDEST JUMPDEST PUSH2 0x70B DUP5 DUP3 DUP6 PUSH2 0x6C2 JUMP JUMPDEST POP SWAP4 SWAP3 POP POP POP JUMP JUMPDEST PUSH1 0x0 DUP3 PUSH1 0x1F DUP4 ADD SLT PUSH2 0x728 JUMPI PUSH2 0x727 PUSH2 0x60C JUMP JUMPDEST JUMPDEST DUP2 CALLDATALOAD PUSH2 0x738 DUP5 DUP3 PUSH1 0x20 DUP7 ADD PUSH2 0x6D1 JUMP JUMPDEST SWAP2 POP POP SWAP3 SWAP2 POP POP JUMP JUMPDEST PUSH1 0x0 PUSH1 0x20 DUP3 DUP5 SUB SLT ISZERO PUSH2 0x757 JUMPI PUSH2 0x756 PUSH2 0x602 JUMP JUMPDEST JUMPDEST PUSH1 0x0 DUP3 ADD CALLDATALOAD PUSH8 0xFFFFFFFFFFFFFFFF DUP2 GT ISZERO PUSH2 0x775 JUMPI PUSH2 0x774 PUSH2 0x607 JUMP JUMPDEST JUMPDEST PUSH2 0x781 DUP5 DUP3 DUP6 ADD PUSH2 0x713 JUMP JUMPDEST SWAP2 POP POP SWAP3 SWAP2 POP POP JUMP JUMPDEST PUSH1 0x0 DUP3 DUP3 MSTORE PUSH1 0x20 DUP3 ADD SWAP1 POP SWAP3 SWAP2 POP POP JUMP JUMPDEST PUSH1 0x0 PUSH2 0x7A6 DUP3 PUSH2 0x4B0 JUMP JUMPDEST PUSH2 0x7B0 DUP2 DUP6 PUSH2 0x78A JUMP JUMPDEST SWAP4 POP PUSH2 0x7C0 DUP2 DUP6 PUSH1 0x20 DUP7 ADD PUSH2 0x4CC JUMP JUMPDEST PUSH2 0x7C9 DUP2 PUSH2 0x4F6 JUMP JUMPDEST DUP5 ADD SWAP2 POP POP SWAP3 SWAP2 POP POP JUMP JUMPDEST PUSH1 0x0 PUSH1 0x40 DUP3 ADD SWAP1 POP DUP2 DUP2 SUB PUSH1 0x0 DUP4 ADD MSTORE PUSH2 0x7EE DUP2 DUP6 PUSH2 0x79B JUMP JUMPDEST SWAP1 POP DUP2 DUP2 SUB PUSH1 0x20 DUP4 ADD MSTORE PUSH2 0x802 DUP2 DUP5 PUSH2 0x79B JUMP JUMPDEST SWAP1 POP SWAP4 SWAP3 POP POP POP JUMP JUMPDEST PUSH1 0x0 DUP1 PUSH1 0x0 PUSH1 0x60 DUP5 DUP7 SUB SLT ISZERO PUSH2 0x824 JUMPI PUSH2 0x823 PUSH2 0x602 JUMP JUMPDEST JUMPDEST PUSH1 0x0 DUP5 ADD CALLDATALOAD PUSH8 0xFFFFFFFFFFFFFFFF DUP2 GT ISZERO PUSH2 0x842 JUMPI PUSH2 0x841 PUSH2 0x607 JUMP JUMPDEST JUMPDEST PUSH2 0x84E DUP7 DUP3 DUP8 ADD PUSH2 0x713 JUMP JUMPDEST SWAP4 POP POP PUSH1 0x20 DUP5 ADD CALLDATALOAD PUSH8 0xFFFFFFFFFFFFFFFF DUP2 GT ISZERO PUSH2 0x86F JUMPI PUSH2 0x86E PUSH2 0x607 JUMP JUMPDEST JUMPDEST PUSH2 0x87B DUP7 DUP3 DUP8 ADD PUSH2 0x713 JUMP JUMPDEST SWAP3 POP POP PUSH1 0x40 DUP5 ADD CALLDATALOAD PUSH8 0xFFFFFFFFFFFFFFFF DUP2 GT ISZERO PUSH2 0x89C JUMPI PUSH2 0x89B PUSH2 0x607 JUMP JUMPDEST JUMPDEST PUSH2 0x8A8 DUP7 DUP3 DUP8 ADD PUSH2 0x713 JUMP JUMPDEST SWAP2 POP POP SWAP3 POP SWAP3 POP SWAP3 JUMP JUMPDEST PUSH32 0x4E487B7100000000000000000000000000000000000000000000000000000000 PUSH1 0x0 MSTORE PUSH1 0x22 PUSH1 0x4 MSTORE PUSH1 0x24 PUSH1 0x0 REVERT JUMPDEST PUSH1 0x0 PUSH1 0x2 DUP3 DIV SWAP1 POP PUSH1 0x1 DUP3 AND DUP1 PUSH2 0x8F9 JUMPI PUSH1 0x7F DUP3 AND SWAP2 POP JUMPDEST PUSH1 0x20 DUP3 LT DUP2 SUB PUSH2 0x90C JUMPI PUSH2 0x90B PUSH2 0x8B2 JUMP JUMPDEST JUMPDEST POP SWAP2 SWAP1 POP JUMP JUMPDEST PUSH1 0x0 DUP2 SWAP1 POP SWAP3 SWAP2 POP POP JUMP JUMPDEST PUSH1 0x0 PUSH2 0x928 DUP3 PUSH2 0x4B0 JUMP JUMPDEST PUSH2 0x932 DUP2 DUP6 PUSH2 0x912 JUMP JUMPDEST SWAP4 POP PUSH2 0x942 DUP2 DUP6 PUSH1 0x20 DUP7 ADD PUSH2 0x4CC JUMP JUMPDEST DUP1 DUP5 ADD SWAP2 POP POP SWAP3 SWAP2 POP POP JUMP JUMPDEST PUSH1 0x0 PUSH2 0x95A DUP3 DUP5 PUSH2 0x91D JUMP JUMPDEST SWAP2 POP DUP2 SWAP1 POP SWAP3 SWAP2 POP POP JUMP JUMPDEST PUSH32 0x436572746966696361746520646F6573206E6F74206578697374000000000000 PUSH1 0x0 DUP3 ADD MSTORE POP JUMP JUMPDEST PUSH1 0x0 PUSH2 0x99B PUSH1 0x1A DUP4 PUSH2 0x78A JUMP JUMPDEST SWAP2 POP PUSH2 0x9A6 DUP3 PUSH2 0x965 JUMP JUMPDEST PUSH1 0x20 DUP3 ADD SWAP1 POP SWAP2 SWAP1 POP JUMP JUMPDEST PUSH1 0x0 PUSH1 0x20 DUP3 ADD SWAP1 POP DUP2 DUP2 SUB PUSH1 0x0 DUP4 ADD MSTORE PUSH2 0x9CA DUP2 PUSH2 0x98E JUMP JUMPDEST SWAP1 POP SWAP2 SWAP1 POP JUMP JUMPDEST PUSH32 0x436572746966696361746520616C726561647920657869737473000000000000 PUSH1 0x0 DUP3 ADD MSTORE POP JUMP JUMPDEST PUSH1 0x0 PUSH2 0xA07 PUSH1 0x1A DUP4 PUSH2 0x78A JUMP JUMPDEST SWAP2 POP PUSH2 0xA12 DUP3 PUSH2 0x9D1 JUMP JUMPDEST PUSH1 0x20 DUP3 ADD SWAP1 POP SWAP2 SWAP1 POP JUMP JUMPDEST PUSH1 0x0 PUSH1 0x20 DUP3 ADD SWAP1 POP DUP2 DUP2 SUB PUSH1 0x0 DUP4 ADD MSTORE PUSH2 0xA36 DUP2 PUSH2 0x9FA JUMP JUMPDEST SWAP1 POP SWAP2 SWAP1 POP JUMP JUMPDEST PUSH1 0x0 DUP2 SWAP1 POP DUP2 PUSH1 0x0 MSTORE PUSH1 0x20 PUSH1 0x0 KECCAK256 SWAP1 POP SWAP2 SWAP1 POP JUMP JUMPDEST PUSH1 0x0 PUSH1 0x20 PUSH1 0x1F DUP4 ADD DIV SWAP1 POP SWAP2 SWAP1 POP JUMP JUMPDEST PUSH1 0x0 DUP3 DUP3 SHL SWAP1 POP SWAP3 SWAP2 POP POP JUMP JUMPDEST PUSH1 0x0 PUSH1 0x8 DUP4 MUL PUSH2 0xA9F PUSH32 0xFFFFFFFFFFFFFFFFFFFFFFFFFFFFFFFFFFFFFFFFFFFFFFFFFFFFFFFFFFFFFFFF DUP3 PUSH2 0xA62 JUMP JUMPDEST PUSH2 0xAA9 DUP7 DUP4 PUSH2 0xA62 JUMP JUMPDEST SWAP6 POP DUP1 NOT DUP5 AND SWAP4 POP DUP1 DUP7 AND DUP5 OR SWAP3 POP POP POP SWAP4 SWAP3 POP POP POP JUMP JUMPDEST PUSH1 0x0 DUP2 SWAP1 POP SWAP2 SWAP1 POP JUMP JUMPDEST PUSH1 0x0 DUP2 SWAP1 POP SWAP2 SWAP1 POP JUMP JUMPDEST PUSH1 0x0 PUSH2 0xAF0 PUSH2 0xAEB PUSH2 0xAE6 DUP5 PUSH2 0xAC1 JUMP JUMPDEST PUSH2 0xACB JUMP JUMPDEST PUSH2 0xAC1 JUMP JUMPDEST SWAP1 POP SWAP2 SWAP1 POP JUMP JUMPDEST PUSH1 0x0 DUP2 SWAP1 POP SWAP2 SWAP1 POP JUMP JUMPDEST PUSH2 0xB0A DUP4 PUSH2 0xAD5 JUMP JUMPDEST PUSH2 0xB1E PUSH2 0xB16 DUP3 PUSH2 0xAF7 JUMP JUMPDEST DUP5 DUP5 SLOAD PUSH2 0xA6F JUMP JUMPDEST DUP3 SSTORE POP POP POP POP JUMP JUMPDEST PUSH1 0x0 SWAP1 JUMP JUMPDEST PUSH2 0xB33 PUSH2 0xB26 JUMP JUMPDEST PUSH2 0xB3E DUP2 DUP5 DUP5 PUSH2 0xB01 JUMP JUMPDEST POP POP POP JUMP JUMPDEST JUMPDEST DUP2 DUP2 LT ISZERO PUSH2 0xB62 JUMPI PUSH2 0xB57 PUSH1 0x0 DUP3 PUSH2 0xB2B JUMP JUMPDEST PUSH1 0x1 DUP2 ADD SWAP1 POP PUSH2 0xB44 JUMP JUMPDEST POP POP JUMP JUMPDEST PUSH1 0x1F DUP3 GT ISZERO PUSH2 0xBA7 JUMPI PUSH2 0xB78 DUP2 PUSH2 0xA3D JUMP JUMPDEST PUSH2 0xB81 DUP5 PUSH2 0xA52 JUMP JUMPDEST DUP2 ADD PUSH1 0x20 DUP6 LT ISZERO PUSH2 0xB90 JUMPI DUP2 SWAP1 POP JUMPDEST PUSH2 0xBA4 PUSH2 0xB9C DUP6 PUSH2 0xA52 JUMP JUMPDEST DUP4 ADD DUP3 PUSH2 0xB43 JUMP JUMPDEST POP POP JUMPDEST POP POP POP JUMP JUMPDEST PUSH1 0x0 DUP3 DUP3 SHR SWAP1 POP SWAP3 SWAP2 POP POP JUMP JUMPDEST PUSH1 0x0 PUSH2 0xBCA PUSH1 0x0 NOT DUP5 PUSH1 0x8 MUL PUSH2 0xBAC JUMP JUMPDEST NOT DUP1 DUP4 AND SWAP2 POP POP SWAP3 SWAP2 POP POP JUMP JUMPDEST PUSH1 0x0 PUSH2 0xBE3 DUP4 DUP4 PUSH2 0xBB9 JUMP JUMPDEST SWAP2 POP DUP3 PUSH1 0x2 MUL DUP3 OR SWAP1 POP SWAP3 SWAP2 POP POP JUMP JUMPDEST PUSH2 0xBFC DUP3 PUSH2 0x4B0 JUMP JUMPDEST PUSH8 0xFFFFFFFFFFFFFFFF DUP2 GT ISZERO PUSH2 0xC15 JUMPI PUSH2 0xC14 PUSH2 0x616 JUMP JUMPDEST JUMPDEST PUSH2 0xC1F DUP3 SLOAD PUSH2 0x8E1 JUMP JUMPDEST PUSH2 0xC2A DUP3 DUP3 DUP6 PUSH2 0xB66 JUMP JUMPDEST PUSH1 0x0 PUSH1 0x20 SWAP1 POP PUSH1 0x1F DUP4 GT PUSH1 0x1 DUP2 EQ PUSH2 0xC5D JUMPI PUSH1 0x0 DUP5 ISZERO PUSH2 0xC4B JUMPI DUP3 DUP8 ADD MLOAD SWAP1 POP JUMPDEST PUSH2 0xC55 DUP6 DUP3 PUSH2 0xBD7 JUMP JUMPDEST DUP7 SSTORE POP PUSH2 0xCBD JUMP JUMPDEST PUSH1 0x1F NOT DUP5 AND PUSH2 0xC6B DUP7 PUSH2 0xA3D JUMP JUMPDEST PUSH1 0x0 JUMPDEST DUP3 DUP2 LT ISZERO PUSH2 0xC93 JUMPI DUP5 DUP10 ADD MLOAD DUP3 SSTORE PUSH1 0x1 DUP3 ADD SWAP2 POP PUSH1 0x20 DUP6 ADD SWAP5 POP PUSH1 0x20 DUP2 ADD SWAP1 POP PUSH2 0xC6E JUMP JUMPDEST DUP7 DUP4 LT ISZERO PUSH2 0xCB0 JUMPI DUP5 DUP10 ADD MLOAD PUSH2 0xCAC PUSH1 0x1F DUP10 AND DUP3 PUSH2 0xBB9 JUMP JUMPDEST DUP4 SSTORE POP JUMPDEST PUSH1 0x1 PUSH1 0x2 DUP9 MUL ADD DUP9 SSTORE POP POP POP JUMPDEST POP POP POP POP POP POP JUMP INVALID LOG2 PUSH5 0x6970667358 0x22 SLT KECCAK256 PUSH6 0x7EB7593B9144 SLOAD 0xD5 ADDRESS PUSH22 0x6853070A38226B90E2D36AA074BCCDF677CC918AE264 PUSH20 0x6F6C634300081C00330000000000000000000000 "},"methodIdentifiers":{"getAllCertificates()":"13fcfe80","issueCertificate(string,string,string)":"beec1caa","verifyCertificate(string)":"8b23d875"}}}}}