{
  "_format": "hh-sol-artifact-1",
  "contractName": "CertificateVerifier",
  "sourceName": "contracts/CertificateVerifier.sol",
  "abi": [
    {
      "inputs": [],
      "name": "getAllCertificates",
      "outputs": [
        {
          "internalType": "string[]",
          "name": "",
          "type": "string[]"
        }
      ],
      "stateMutability": "view",
      "type": "function"
    },
    {
      "inputs": [
        {
          "internalType": "string",
          "name": "certificateId",
          "type": "string"
        },
        {
          "internalType": "string",
          "name": "studentName",
          "type": "string"
        },
        {
          "internalType": "string",
          "name": "course",
          "type": "string"
        }
      ],
      "name": "issueCertificate",
      "outputs": [],
      "stateMutability": "nonpayable",
      "type": "function"
    },
    {
      "inputs": [
        {
          "internalType": "string",
          "name": "certificateId",
          "type": "string"
        }
      ],
      "name": "verifyCertificate",
      "outputs": [
        {
          "internalType": "string",
          "name": "studentName",
          "type": "string"
        },
        {
          "internalType": "string",
          "name": "course",
          "type": "string"
        }
      ],
      "stateMutability": "view",
      "type": "function"
    }
  ],
  "bytecode": "0x6080604052348015600f57600080fd5b50610cfb8061001f6000396000f3fe608060405234801561001057600080fd5b50600436106100415760003560e01c806313fcfe80146100465780638b23d87514610064578063beec1caa14610095575b600080fd5b61004e6100b1565b60405161005b91906105d6565b60405180910390f35b61007e60048036038101906100799190610741565b61018a565b60405161008c9291906107d4565b60405180910390f35b6100af60048036038101906100aa919061080b565b610350565b005b60606001805480602002602001604051908101604052809291908181526020016000905b828210156101815783829060005260206000200180546100f4906108e1565b80601f0160208091040260200160405190810160405280929190818152602001828054610120906108e1565b801561016d5780601f106101425761010080835404028352916020019161016d565b820191906000526020600020905b81548152906001019060200180831161015057829003601f168201915b5050505050815260200190600101906100d5565b50505050905090565b6060806000808460405161019e919061094e565b90815260200160405180910390206040518060600160405290816000820180546101c7906108e1565b80601f01602080910402602001604051908101604052809291908181526020018280546101f3906108e1565b80156102405780601f1061021557610100808354040283529160200191610240565b820191906000526020600020905b81548152906001019060200180831161022357829003601f168201915b50505050508152602001600182018054610259906108e1565b80601f0160208091040260200160405190810160405280929190818152602001828054610285906108e1565b80156102d25780601f106102a7576101008083540402835291602001916102d2565b820191906000526020600020905b8154815290600101906020018083116102b557829003601f168201915b505050505081526020016002820160009054906101000a900460ff1615151515815250509050806040015161033c576040517f08c379a0000000000000000000000000000000000000000000000000000000008152600401610333906109b1565b60405180910390fd5b806000015181602001519250925050915091565b60008084604051610361919061094e565b9081526020016040518091039020600001805461037d906108e1565b9050146103bf576040517f08c379a00000000000000000000000000000000000000000000000000000000081526004016103b690610a1d565b60405180910390fd5b6040518060600160405280838152602001828152602001600115158152506000846040516103ed919061094e565b908152602001604051809103902060008201518160000190816104109190610bf3565b5060208201518160010190816104269190610bf3565b5060408201518160020160006101000a81548160ff02191690831515021790555090505060018390806001815401808255809150506001900390600052602060002001600090919091909150908161047e9190610bf3565b50505050565b600081519050919050565b600082825260208201905092915050565b6000819050602082019050919050565b600081519050919050565b600082825260208201905092915050565b60005b838110156104ea5780820151818401526020810190506104cf565b60008484015250505050565b6000601f19601f8301169050919050565b6000610512826104b0565b61051c81856104bb565b935061052c8185602086016104cc565b610535816104f6565b840191505092915050565b600061054c8383610507565b905092915050565b6000602082019050919050565b600061056c82610484565b610576818561048f565b935083602082028501610588856104a0565b8060005b858110156105c457848403895281516105a58582610540565b94506105b083610554565b925060208a0199505060018101905061058c565b50829750879550505050505092915050565b600060208201905081810360008301526105f08184610561565b905092915050565b6000604051905090565b600080fd5b600080fd5b600080fd5b600080fd5b7f4e487b7100000000000000000000000000000000000000000000000000000000600052604160045260246000fd5b61064e826104f6565b810181811067ffffffffffffffff8211171561066d5761066c610616565b5b80604052505050565b60006106806105f8565b905061068c8282610645565b919050565b600067ffffffffffffffff8211156106ac576106ab610616565b5b6106b5826104f6565b9050602081019050919050565b82818337600083830152505050565b60006106e46106df84610691565b610676565b905082815260208101848484011115610700576106ff610611565b5b61070b8482856106c2565b509392505050565b600082601f8301126107285761072761060c565b5b81356107388482602086016106d1565b91505092915050565b60006020828403121561075757610756610602565b5b600082013567ffffffffffffffff81111561077557610774610607565b5b61078184828501610713565b91505092915050565b600082825260208201905092915050565b60006107a6826104b0565b6107b0818561078a565b93506107c08185602086016104cc565b6107c9816104f6565b840191505092915050565b600060408201905081810360008301526107ee818561079b565b90508181036020830152610802818461079b565b90509392505050565b60008060006060848603121561082457610823610602565b5b600084013567ffffffffffffffff81111561084257610841610607565b5b61084e86828701610713565b935050602084013567ffffffffffffffff81111561086f5761086e610607565b5b61087b86828701610713565b925050604084013567ffffffffffffffff81111561089c5761089b610607565b5b6108a886828701610713565b9150509250925092565b7f4e487b7100000000000000000000000000000000000000000000000000000000600052602260045260246000fd5b600060028204905060018216806108f957607f821691505b60208210810361090c5761090b6108b2565b5b50919050565b600081905092915050565b6000610928826104b0565b6109328185610912565b93506109428185602086016104cc565b80840191505092915050565b600061095a828461091d565b915081905092915050565b7f436572746966696361746520646f6573206e6f74206578697374000000000000600082015250565b600061099b601a8361078a565b91506109a682610965565b602082019050919050565b600060208201905081810360008301526109ca8161098e565b9050919050565b7f436572746966696361746520616c726561647920657869737473000000000000600082015250565b6000610a07601a8361078a565b9150610a12826109d1565b602082019050919050565b60006020820190508181036000830152610a36816109fa565b9050919050565b60008190508160005260206000209050919050565b60006020601f8301049050919050565b600082821b905092915050565b600060088302610a9f7fffffffffffffffffffffffffffffffffffffffffffffffffffffffffffffffff82610a62565b610aa98683610a62565b95508019841693508086168417925050509392505050565b6000819050919050565b6000819050919050565b6000610af0610aeb610ae684610ac1565b610acb565b610ac1565b9050919050565b6000819050919050565b610b0a83610ad5565b610b1e610b1682610af7565b848454610a6f565b825550505050565b600090565b610b33610b26565b610b3e818484610b01565b505050565b5b81811015610b6257610b57600082610b2b565b600181019050610b44565b5050565b601f821115610ba757610b7881610a3d565b610b8184610a52565b81016020851015610b90578190505b610ba4610b9c85610a52565b830182610b43565b50505b505050565b600082821c905092915050565b6000610bca60001984600802610bac565b1980831691505092915050565b6000610be38383610bb9565b9150826002028217905092915050565b610bfc826104b0565b67ffffffffffffffff811115610c1557610c14610616565b5b610c1f82546108e1565b610c2a828285610b66565b600060209050601f831160018114610c5d5760008415610c4b578287015190505b610c558582610bd7565b865550610cbd565b601f198416610c6b86610a3d565b60005b82811015610c9357848901518255600182019150602085019450602081019050610c6e565b86831015610cb05784890151610cac601f891682610bb9565b8355505b6001600288020188555050505b50505050505056fea2646970667358221220657eb7593b914454d530756853070a38226b90e2d36aa074bccdf677cc918ae264736f6c634300081c0033",
  "linkReferences": {},
  "deployedLinkReferences": {}
}